:100000000C9462000C948A000C948A000C948A0070
:100010000C948A000C948A000C948A000C948A0038
:100020000C948A000C948A000C948A000C948A0028
:100030000C948A000C948A000C948A000C948A0018
:100040000C946F030C948A000C943D030C941703DA
:100050000C948A000C948A000C948A000C948A00F8
:100060000C948A000C948A000000000024002700F1
:100070002A0000000000250028002B0000000000DE
:1000800023002600290004040404040404040202DA
:100090000202020203030303030301020408102007
:1000A0004080010204081020010204081020000012
:1000B0000008000201000003040700000000000027
:1000C0000000DB0711241FBECFEFD8E0DEBFCDBF9D
:1000D00011E0A0E0B1E0EAEBF0E102C005900D9282
:1000E000A638B107D9F722E0A6E8B1E001C01D9219
:1000F000AB37B207E1F710E0C2E6D0E004C02197C9
:10010000FE010E945008C136D107C9F70E94B90309
:100110000C945B080C940000CF92DF92EF92FF9258
:100120000F931F93CF93DF936C017A018B01C0E093
:10013000D0E0CE15DF0589F0D8016D918D01D60193
:10014000ED91FC910190F081E02DC6010995892B7C
:1001500011F47E0102C02196ECCFC701DF91CF914F
:100160001F910F91FF90EF90DF90CF900895FC01C9
:10017000918D828D981761F0828DDF01A80FB11DDE
:100180005D968C91928D9F5F9F73928F90E0089502
:100190008FEF9FEF0895FC01918D828D981731F0BC
:1001A000828DE80FF11D858D90E008958FEF9FEF10
:1001B0000895FC01918D228D892F90E0805C9F4FE6
:1001C000821B91098F73992708958EED91E00E940B
:1001D000D90021E0892B09F420E0822F0895FC0149
:1001E000848DDF01A80FB11DA35ABF4F2C91848DC0
:1001F00090E001968F739927848FA689B7892C93F5
:10020000A089B1898C9180648C93938D848D98138F
:1002100006C00288F389E02D80818F7D8083089558
:10022000EF92FF920F931F93CF93DF93EC0181E046
:10023000888F9B8D8C8D981305C0E889F989808102
:1002400085FD24C0F62E0B8D10E00F5F1F4F0F733E
:100250001127E02E8C8DE8120CC00FB607FCFACFE8
:10026000E889F989808185FFF5CFCE010E94EF00F2
:10027000F1CF8B8DFE01E80FF11DE35AFF4FF082A5
:100280000B8FEA89FB898081806207C0EE89FF8934
:100290006083E889F98980818064808381E090E0CF
:1002A000DF91CF911F910F91FF90EF900895CF9321
:1002B000DF93EC01888D8823C9F0EA89FB8980816E
:1002C00085FD05C0A889B9898C9186FD0FC00FB640
:1002D00007FCF5CF808185FFF2CFA889B9898C9181
:1002E00085FFEDCFCE010E94EF00E7CFDF91CF91E8
:1002F000089580E090E0892B29F00E94E5008111AB
:100300000C9400000895833081F028F4813099F036
:100310008230A1F008958730A9F08830B9F0843098
:10032000D1F4809180008F7D03C0809180008F7711
:1003300080938000089584B58F7702C084B58F7D47
:1003400084BD08958091B0008F7703C08091B00084
:100350008F7D8093B0000895CF93DF93282F30E0F6
:10036000F901E255FF4F8491F901E656FF4FD49110
:10037000F901EA57FF4FC491CC2391F081110E94FB
:100380008301EC2FF0E0EE0FFF1FE458FF4FA59123
:10039000B491EC91ED2381E090E021F480E002C083
:1003A00080E090E0DF91CF9108951F93CF93DF938A
:1003B000282F30E0F901E255FF4F8491F901E6560C
:1003C000FF4FD491F901EA57FF4FC491CC23C9F0F4
:1003D000162F81110E948301EC2FF0E0EE0FFF1F1A
:1003E000EE58FF4FA591B4918FB7F894111105C045
:1003F0009C91ED2FE095E92302C0EC91ED2BEC935D
:100400008FBFDF91CF911F910895CF93DF9390E03D
:10041000FC01E656FF4F2491FC01EA57FF4F8491FF
:10042000882361F190E0880F991FFC01E859FF4F84
:10043000C591D491FC01EE58FF4FA591B491611183
:1004400009C09FB7F8948881209582238883EC9116
:100450002E230BC0623061F49FB7F8943881822F4D
:10046000809583238883EC912E2B2C939FBF06C00D
:100470008FB7F894E8812E2B28838FBFDF91CF911F
:1004800008952FB7F89460918B0170918C01809141
:100490008D0190918E012FBF0895009769F0FC01A6
:1004A00001900020E9F73197AF01481B590BBC01BF
:1004B0008EED91E00C948C0080E090E008958F9296
:1004C0009F92AF92BF920F931F93CF93DF93CDB7BD
:1004D000DEB7A1970FB6F894DEBF0FBECDBF19A24D
:1004E000423008F44AE08E010F5D1F4F842E912C9C
:1004F000A12CB12CA50194010E942E08E62FB90170
:10050000CA0101501109EA3014F4E05D01C0E95C50
:10051000D801EC93232B242B252B61F7C8010E94D3
:100520004D02A1960FB6F894DEBF0FBECDBFDF918E
:10053000CF911F910F91BF90AF909F908F90089592
:10054000CF92DF92EF92FF92CF93DF936B017C010A
:10055000E091DE01F091DF010190F081E02D6DE28C
:100560008EED91E00995EC0166277727CB016C1998
:100570007D098E099F094AE00E945F028C0F9D1F32
:10058000DF91CF91FF90EF90DF90CF9008950C9482
:100590004D02CF93DF930E944D02EC0182E291E085
:1005A0000E944D028C0F9D1FDF91CF910895CF9334
:1005B000DF93E091DE01F091DF010190F081E02D09
:1005C000682F8EED91E00995EC0182E291E00E94A6
:1005D0004D028C0F9D1FDF91CF910895CF93DF9334
:1005E0004AE00E945F02EC0182E291E00E944D022B
:1005F0008C0F9D1FDF91CF910895CF93DF93BC01A6
:10060000990F880B990B97FF03C00E94A00203C0AB
:100610004AE00E945F02EC0182E291E00E944D02FA
:100620008C0F9D1FDF91CF9108950E9456081F9255
:100630000F920FB60F9211242F933F934F935F9316
:100640006F937F938F939F93AF93BF93EF93FF939A
:100650008EED91E00E94EF00FF91EF91BF91AF917D
:100660009F918F917F916F915F914F913F912F91CA
:100670000F900FBE0F901F9018951F920F920FB6FC
:100680000F9211242F938F939F93EF93FF93E091F9
:10069000EE01F091EF018081E091F401F091F5011C
:1006A00082FD12C090818091F7018F5F8F7320913E
:1006B000F801821751F0E091F701F0E0E252FE4FAD
:1006C000958F8093F70101C08081FF91EF919F91F9
:1006D0008F912F910F900FBE0F901F9018951F9222
:1006E0000F920FB60F9211242F933F938F939F93E6
:1006F000AF93BF9380918B0190918C01A0918D015C
:10070000B0918E0130918A0123E0230F2D3720F420
:100710000196A11DB11D05C026E8230F0296A11D5B
:10072000B11D20938A0180938B0190938C01A0933B
:100730008D01B0938E018091860190918701A091E7
:100740008801B09189010196A11DB11D8093860198
:1007500090938701A0938801B0938901BF91AF91D5
:100760009F918F913F912F910F900FBE0F901F90EF
:100770001895CF93DF9300D000D0CDB7DEB7789433
:1007800084B5826084BD84B5816084BD85B5826096
:1007900085BD85B5816085BD80916E008160809347
:1007A0006E001092810080918100826080938100B0
:1007B00080918100816080938100809180008160C0
:1007C000809380008091B10084608093B10080911B
:1007D000B00081608093B00080917A008460809343
:1007E0007A0080917A00826080937A0080917A000A
:1007F000816080937A0080917A00806880937A008B
:100800001092C100E091EE01F091EF0182E080834F
:10081000E091EA01F091EB011082E091EC01F0919E
:10082000ED0180E180831092F601E091F201F091F8
:10083000F30186E08083E091F001F091F101808185
:1008400080618083E091F001F091F1018081886006
:100850008083E091F001F091F101808180688083D4
:10086000E091F001F091F10180818F7D808361E062
:100870008DE00E94050261E089E00E94050261E0CE
:100880008AE00E94050261E08BE00E94050261E0BF
:100890008CE00E94050260E089E00E94D50160E0E2
:1008A0008AE00E94D50160E08BE00E94D50160E003
:1008B0008CE00E94D5016AE1E62E61E0F62EF70198
:1008C0001081F2E0EF0EF11C60E0812F0E94050222
:1008D00061E0812F0E94D50102E2E01601E0F006FE
:1008E00071F70E94410200919101109192012091B3
:1008F000930130919401DC01CB01801B910BA20B81
:10090000B30B8B3F9105A105B105D8F00E944102C0
:10091000609391017093920180939301909394015D
:1009200061E080918F0190919001892B09F060E046
:10093000862F90E09093900180938F018DE00E942C
:10094000D5018EED91E00E94D900181619060CF021
:10095000DCC08EED91E00E94B7008093A0019091E1
:100960009F018D3011F08A30C1F4992309F4CDC074
:1009700010929F0187E991E00E940808909301017D
:100980008093000185E291E00E94C70280910001FE
:10099000909101010E94FD02B8C0992379F0209145
:1009A000950130919601F901E956FE4F80832F5F42
:1009B0003F4F3093960120939501A7C08C3641F4A8
:1009C000109296011092950111E010939F019DC025
:1009D000863739F488E291E00E94C7028BE291E009
:1009E00068C0873609F056C01092C5011092C60142
:1009F0001092C7011092C8011092AE011092AF017F
:100A00001092B0011092B1011092C9011092CA0166
:100A10001092CB011092CC011092B2011092B3014E
:100A20001092B4011092B5011092CD011092CE0136
:100A30001092CF011092D0011092B6011092B7011E
:100A40001092B8011092B9011092D1011092D20106
:100A50001092D3011092D4011092BA011092BB01EE
:100A60001092BC011092BD0121E02093DD01109293
:100A7000BE0144E050E05093C0014093BF010E948A
:100A800041026093C1017093C2018093C3019093AE
:100A9000C4013BC08D3681F48091A50151E08527CA
:100AA0008093A501882319F085E391E002C08AE3D1
:100AB00091E00E94C90229C08337A9F41092BE01B7
:100AC0001092DD0160E089E00E94D50160E08AE0DB
:100AD0000E94D50160E08BE00E94D50160E08CE0CF
:100AE0000E94D50112C080E491E00E94C70280916B
:100AF000A0019FED980F9E3530F087E591E00E94B0
:100B0000C7028091A0010E94D7028091DD01882355
:100B100009F4F2C005EC11E035ED632E31E0732EDF
:100B200042E0E42E41E0F42E5AE1C52E51E0D52EEC
:100B3000412C512CF6018081F2E0CF0ED11C0E9495
:100B4000AC019C014301F30191838083F801808112
:100B50009181A281B38184309105A105B10500F591
:100B600021303105E9F4F70120813181232BC1F4D3
:100B70000196A11DB11DF80180839183A283B383E7
:100B80000497A105B10561F485E791E00E94C702D1
:100B9000C2010E94FD0260E089E0840D0E94D5013F
:100BA000F2E06F0E711CF40180819181F701819355
:100BB00091937F01FFEF4F1A5F0A0C5F1F4F24E0F4
:100BC0004216510409F0B6CF0E9441020091C101C2
:100BD0001091C2012091C3013091C401DC01CB010D
:100BE000801B910BA20BB30B893E9340A105B1056D
:100BF000E8F08091BF019091C00101979093C001EE
:100C00008093BF010E9441026093C1017093C201B1
:100C10008093C3019093C40189E791E00E94C702C9
:100C20008091BF019091C0010E94FD028091BF019F
:100C30009091C001892B09F05FC00E94410260932E
:100C4000AA017093AB018093AC019093AD01109217
:100C5000DD0141E04093BE011092C5011092C60132
:100C60001092C7011092C8011092AE011092AF010C
:100C70001092B0011092B1011092C9011092CA01F4
:100C80001092CB011092CC011092B2011092B301DC
:100C90001092B4011092B5011092CD011092CE01C4
:100CA0001092CF011092D0011092B6011092B701AC
:100CB0001092B8011092B9011092D1011092D20194
:100CC0001092D3011092D4011092BA011092BB017C
:100CD0001092BC011092BD0161E089E00E94D50133
:100CE00061E08AE00E94D50161E08BE00E94D501BD
:100CF00061E08CE00E94D5018091BE0181112BC082
:100D00008091A6019091A701A091A801B091A9019D
:100D10004091A1015091A2016091A3017091A401A1
:100D20008C019D01041B150B260B370B033311059A
:100D30002105310508F43CC18093A1019093A201E3
:100D4000A093A301B093A40180E891E00E94C702A0
:100D500005EC11E012C10E9441020091AA0110911C
:100D6000AB012091AC013091AD01DC01CB01801BC6
:100D7000910BA20BB30B8093A6019093A701A093B4
:100D8000A801B093A90185ED882E81E0982E92E00C
:100D9000292E91E0392E2EEA31E03C832B8305EC9D
:100DA00011E01A8309832AE1A22E21E0B22EC12C80
:100DB000D12C76018091A501260137011FEF411A40
:100DC000510A610A710A81115EC0F50180810E9499
:100DD000AC01F40191838083019709F04DC0F101CA
:100DE00080819181892B09F047C0E981FA81408196
:100DF0005181628173814F5F5F4F6F4F7F4F40839F
:100E0000518362837383EB81FC8180819181A28114
:100E1000B381892B8A2B8B2B79F5809100019091DE
:100E20000101092E000CAA0BBB0B481759076A07D2
:100E30007B0710F18091A6019091A701A091A801D4
:100E4000B091A90180839183A283B3834AE0C70153
:100E5000B6010E945F028DE791E00E94C702EB811C
:100E6000FC8160817181828193810E94EE0260E049
:100E700089E08C0D0E94D501F40180819181F101FE
:100E8000918380835BC00091A6011091A7012091FE
:100E9000A8013091A9018091A1019091A201A09196
:100EA000A301B091A401B901A801481B590B6A0B19
:100EB0007B0B433351056105710508F43FC0E9819F
:100EC000FA814081518162817381440D551D661DF7
:100ED000771D4083518362837383EB81FC81808122
:100EE0009181A281B381892B8A2B8B2B39F580913B
:100EF000000190910101092E000CAA0BBB0B4817B1
:100F000059076A077B07D0F000831183228333835C
:100F10004AE0C701B6010E945F028DE791E00E949E
:100F2000C702EB81FC8160817181828193810E9483
:100F3000EE0260E089E08C0D0E94D501F2E08F0E98
:100F4000911C02E0200E311C2B813C812C5F3F4F15
:100F50003C832B837301620109811A810C5F1F4F4F
:100F60001A83098312E0A10EB11C24E04216510439
:100F70006104710409F01ECFC3CEF8016191719133
:100F8000819191918F014AE00E945F0283E891E094
:100F90000E94C702F1E0053D1F0779F76091A601A5
:100FA0007091A7018091A8019091A9010E94EE0281
:100FB0000E94790196CCEEEDF1E01382128288EE68
:100FC00093E0A0E0B0E084839583A683B7838EE0AE
:100FD00091E09183808385EC90E09587848784EC11
:100FE00090E09787868780EC90E0918B808B81ECF6
:100FF00090E0938B828B82EC90E0958B848B86ECD7
:1010000090E0978B868B118E128E138E148E08951E
:10101000FC0188279927E89421912032E9F32930AF
:1010200010F02E30C8F32B3241F02D3239F4689491
:1010300004C00E942608820F911D219120532A305E
:10104000C0F31EF4909581959F4F08957AE0979F85
:10105000902D879F802D910D11240895A1E21A2EC5
:10106000AA1BBB1BFD010DC0AA1FBB1FEE1FFF1F4C
:10107000A217B307E407F50720F0A21BB30BE40B9C
:10108000F50B661F771F881F991F1A9469F76095E3
:101090007095809590959B01AC01BD01CF0108959D
:1010A000EE0FFF1F0590F491E02D099481E090E090
:0A10B000F8940C945B08F894FFCF4D
:1010BA0014000100010001000100000000001001FD
:1010CA008C00D900B700CB005701020003000400CE
:1010DA0005000D0A004C3A00563A0053535F763029
:1010EA002E312E32004D3A4F4E004D3A4F464600B1
:1010FA004552524F523A436F6D6D616E6420696E6C
:10110A0076616C696420004552524F523A556E70AE
:10111A0072696E7461626C65204153434949206368
:10112A006F6465200046533A0043443A00463A0049
:06113A00523A002C0000F7
:00000001FF
